:100000000C942E000C9443000C9443000C94430079
:100010000C9443000C9443000C9443000C94430054
:100020000C9443000C9443000C9443000C94430044
:100030000C9443000C9443000C9443000C94430034
:100040000C9443000C9443000C9443000C94430024
:100050000C94430000150E150E15000011241FBE50
:10006000CFE5D4E0DEBFCDBF10E0A0E6B0E0EEE625
:10007000F4E002C005900D92A637B107D9F70E94AF
:100080004F000C9435020C94000088EB9BE029E1B2
:1000900030E0F9013197F1F70197D9F708950F93FF
:1000A0001F93CF93DF930E94AD000E94D90184E596
:1000B00090E060E00E94180280E061E00E94A601EA
:1000C00080E00E944B0187E690E06EE00E94910183
:1000D00080E00E944B0100E0C9E1D0E020C080E058
:1000E00060E00E94A60110E004C080E20E944B0183
:1000F0001F5F1017D0F3802F60E00E94A60180E6FA
:1001000090E066E00E94910180E20E944B0188EB42
:100110009BE0FE013197F1F70197D9F70F5F0B30A4
:10012000F0F209E0802F60E00E94A60180E690E0F6
:1001300066E00E949101102F1A5F80E20E944B013D
:100140001F5F1031D1F788EB9BE0FE013197F1F78B
:100150000197D9F7015031F7C2CF86EA9EE00197A7
:10016000F1F712BA12BA81B38C6381BB81B3836099
:1001700081BB82B38C6082BB919A2AEF30E0C901C7
:100180000197F1F7919882EE94E00197F1F782B32D
:100190008C6082BB919AC9010197F1F79198C901CE
:1001A0000197F1F782B38C6082BB919AC9010197E4
:1001B000F1F79198C9010197F1F782B3887082BB7A
:1001C000919AC9010197F1F79198C9010197F1F747
:1001D000939A919AC9010197F1F79198C9010197F2
:1001E000F1F7959A919AC9010197F1F79198C90190
:1001F0000197F1F782B312BA919AC9010197F1F709
:100200009198C9010197F1F7959A919AC9010197BF
:10021000F1F79198C9010197F1F782B312BA919A57
:10022000C9010197F1F79198C9010197F1F7929AE5
:10023000919AC9010197F1F79198C9010197F1F7D6
:1002400082B312BA919AC9010197F1F79198C90145
:100250000197F1F782B3886182BB919AC901019736
:10026000F1F79198C9010197F1F782B312BA919A07
:10027000C9010197F1F79198C9010197F1F782B38C
:100280008C6382BB919AC9010197F1F79198C901DA
:100290000197F1F70895982F969596959C7392BBC8
:1002A00092B3936092BB2AEF30E0F9013197F1F7F6
:1002B00092B312BAF9013197F1F7880F880F8C7356
:1002C00082BB82B3836082BBC9010197F1F782B31D
:1002D00012BAC9010197F1F70895982F969596954E
:1002E0009C7392BB919A2AEF30E0F9013197F1F7B4
:1002F0009198F9013197F1F7880F880F8C7382BBC1
:10030000919AC9010197F1F79198C9010197F1F705
:10031000089581E00E946D01089582E00E946D01C0
:1003200008950F931F93CF93DF93062F009749F003
:10033000EC0110E004C089910E944B011F5F10176F
:10034000D0F3DF91CF911F910F910895623031F07A
:10035000633031F0613029F4805C03C08C5E01C0F1
:100360008C5A80680E946D0108950F931F93082F87
:1003700010E004C08EE10E946D011F5F1017D0F3E2
:100380001F910F9108950F931F93082F10E004C041
:1003900088E10E946D011F5F1017D0F31F910F912C
:1003A00008958EE00E946D0108958FE00E946D0116
:1003B00008958CE00E946D01089588E00E946D010F
:1003C00008958CE00E946D0108950F931F93082FEC
:1003D00010E004C080E10E946D011F5F1017D0F390
:1003E0001F910F9108950F931F93082F10E004C0E1
:1003F00084E10E946D011F5F1017D0F31F910F91D0
:1004000008951F93CF93DF93EC01862F642F0E94F2
:10041000A60110E003C00E944B011F5FFE01E10F27
:10042000F11D84918823B9F7DF91CF911F91089531
:100430000F931F93CF93DF93660F660F660FEC0148
:100440006064062F085F162F1F5F862F0E946D01C4
:10045000FE0184910E944B012196612F101799F79C
:0E046000DF91CF911F910F910895F894FFCF77
:10046E0023204F4B2023002020494220202D2020E6
:06047E0020534D20200078
:00000001FF
