:100000000C9434000C9451000C9451000C94510049
:100010000C9451000C9451000C9451000C9451001C
:100020000C9451000C9451000C9451000C9451000C
:100030000C9451000C9451000C9453000C945100FA
:100040000C9451000C9451000C9451000C945100EC
:100050000C9451000C9451000C9451000C945100DC
:100060000C9451000C94510011241FBECFEFD8E026
:10007000DEBFCDBF11E0A0E0B1E0E8E8F2E102C0F0
:1000800005900D92A438B107D9F721E0A4E8B1E0BA
:1000900001C01D92AB3BB207E1F70E9412070C941E
:1000A00042090C9400001F920F920FB60F92112478
:1000B0002F938F939F93AF93BF938091AF019091B4
:1000C000B001A091B101B091B2010196A11DB11D85
:1000D0008093AF019093B001A093B101B093B201AE
:1000E0008091AF019091B001A091B101B091B201A6
:1000F0008D3D9540A105B10570F11092AF011092B0
:10010000B0011092B1011092B2018091AB019091B7
:10011000AC01A091AD01B091AE010196A11DB11D40
:100120008093AB019093AC01A093AD01B093AE016D
:100130008091930190919401A0919501B0919601C5
:100140000196A11DB11D8093930190939401A093FA
:100150009501B09396018091930190919401A091A3
:100160009501B091960181319742A105B10540F00A
:1001700010929301109294011092950110929601A1
:10018000BF91AF919F918F912F910F900FBE0F90C4
:100190001F901895DC018D919C91119721E030E022
:1001A00010C0F901EE0FFF1FEA0FFB1F40815181C4
:1001B0001416150624F4481759070CF4CA012F5FCA
:1001C0003F4F261737076CF3089516BC84B5886037
:1001D00084BD84B5846084BDEEE6F0E080818260F9
:1001E000808382E187BD7894089585B5816085BD5F
:1001F000089584B58E7F84BD16BC1092AB01109219
:10020000AC011092AD011092AE0108952FEF89EF6D
:1002100090E0215080409040E1F700C00000089538
:10022000CF93DF93EC011092AB011092AC011092CE
:10023000AD011092AE010E94F5003AC01B9B17C0A1
:100240008091930190919401A0919501B0919601B4
:1002500080938B0190938C01A0938D01B0938E01BC
:100260000E940601209719F081E080938A011C9B6F
:1002700005C00E94060181E0809388011D9B18C083
:100280008091930190919401A0919501B091960174
:1002900080938F0190939001A0939101B09392016C
:1002A0000E940601C230D10519F081E080938901D6
:1002B0008091AB019091AC01A091AD01B091AE01E4
:1002C00084369105A105B10509F0B8CF0E94F90067
:1002D000DF91CF9108958F929F92AF92BF92DF925C
:1002E000EF92FF920F931F93CF93DF93CDB7DEB7BB
:1002F00064970FB6F894DEBF0FBECDBF84E1E4E093
:10030000F1E0DE01119601900D928A95E1F700E08F
:1003100010E079C1F801EE0FFF1F41E050E04C0FF3
:100320005D1FE40FF51F808191818130910509F0F7
:1003300046C025B1AA24A394B12CA50102C0440F44
:10034000551F8A95E2F7CA01822B85B97801EE0C18
:10035000FF1CE1E0F0E0EC0FFD1FEE0DFF1DD08073
:100360008D2D91810E94100185B102C0AA0CBB1C89
:10037000DA94E2F7A094A822A5B8F701E956FE4F57
:100380008FEF9FEF9183808380918801882309F408
:1003900038C18091B7019091B801A091B901B09195
:1003A000BA010196A11DB11D8093B7019093B801C8
:1003B000A093B901B093BA011092880122C10097AD
:1003C00009F090C08090930190909401A0909501C5
:1003D000B090960125B1EE24E394F12CA70102C060
:1003E000440F551F8A95E2F7CA01822B85B9F8019F
:1003F000EE0FFF1F81E090E08C0F9D1FE80FF91FAB
:10040000D0808D2D91810E94100185B102C0EE0C2B
:10041000FF1CDA94E2F7E094E822E5B880918901C4
:100420008823F9F08091B7019091B801A091B901AA
:10043000B091BA010196A11DB11D8093B7019093AF
:10044000B801A093B901B093BA0110928901F801E3
:10045000EE0FFF1FE956FE4F88EB9BE091838083F0
:10046000D0C080918B0190918C01A0918D01B091B1
:100470008E01892B8A2B8B2BC1F080918B0190915F
:100480008C01A0918D01B0918E01881999094EE1DE
:10049000489F9001499F300D1124F801EE0FFF1F76
:1004A000E956FE4F31832083ACC08091B701909113
:1004B000B801A091B901B091BA010196A11DB11D79
:1004C0008093B7019093B801A093B901B093BA019A
:1004D000F801EE0FFF1FE956FE4F88EB9BE091837A
:1004E00080838FC08090930190909401A09095019B
:1004F000B090960125B1EE24E394F12CA70102C03F
:10050000440F551F8A95E2F7CA01822B85B9F8017D
:10051000EE0FFF1F81E090E08C0F9D1FE80FF91F89
:10052000D0808D2D91810E94100185B102C0EE0C0A
:10053000FF1CDA94E2F7E094E822E5B880918A01A2
:100540008823F9F08091B7019091B801A091B90189
:10055000B091BA010196A11DB11D8093B70190938E
:10056000B801A093B901B093BA0110928A01F801C1
:10057000EE0FFF1FE956FE4F88EB9BE091838083CF
:1005800040C080918F0190919001A0919101B09114
:100590009201892B8A2B8B2BC1F080918F01909136
:1005A0009001A0919101B0919201881999094EE1B1
:1005B000489F9001499F300D1124F801EE0FFF1F55
:1005C000E956FE4F318320831CC08091B701909182
:1005D000B801A091B901B091BA010196A11DB11D58
:1005E0008093B7019093B801A093B901B093BA0179
:1005F000F801EE0FFF1FE956FE4F88EB9BE0918359
:1006000080830F5F1F4F0A3011050CF483CE649670
:100610000FB6F894DEBF0FBECDBFDF91CF911F9113
:100620000F91FF90EF90DF90BF90AF909F908F90D1
:1006300008958F929F92AF92BF92DF92EF92FF92B6
:100640000F931F93CF93DF93CDB7DEB764970FB6A9
:10065000F894DEBF0FBECDBF84E1E8E1F1E0DE013A
:10066000119601900D928A95E1F700E010E079C1B2
:10067000F801EE0FFF1F41E050E04C0F5D1FE40F4B
:10068000F51F808191818130910509F046C025B127
:10069000AA24A394B12CA50102C0440F551F8A952A
:1006A000E2F7CA01822B85B97801EE0CFF1CE1E06C
:1006B000F0E0EC0FFD1FEE0DFF1DD0808D2D918120
:1006C0000E94100185B102C0AA0CBB1CDA94E2F7AB
:1006D000A094A822A5B8F701E956FE4F8FEF9FEF2F
:1006E0009183808380918801882309F438C18091A7
:1006F000B7019091B801A091B901B091BA010196EA
:10070000A11DB11D8093B7019093B801A093B901C9
:10071000B093BA011092880122C1009709F090C0ED
:100720008090930190909401A0909501B0909601D3
:1007300025B1EE24E394F12CA70102C0440F551F0C
:100740008A95E2F7CA01822B85B9F801EE0FFF1FE7
:1007500081E090E08C0F9D1FE80FF91FD0808D2D58
:1007600091810E94100185B102C0EE0CFF1CDA9449
:10077000E2F7E094E822E5B8809189018823F9F056
:100780008091B7019091B801A091B901B091BA01DF
:100790000196A11DB11D8093B7019093B801A0935C
:1007A000B901B093BA0110928901F801EE0FFF1F51
:1007B000E956FE4F88EB9BE091838083D0C0809107
:1007C0008B0190918C01A0918D01B0918E01892BAC
:1007D0008A2B8B2BC1F080918B0190918C01A09181
:1007E0008D01B0918E01881999094EE1489F9001C1
:1007F000499F300D1124F801EE0FFF1FE956FE4FFF
:1008000031832083ACC08091B7019091B801A09151
:10081000B901B091BA010196A11DB11D8093B70134
:100820009093B801A093B901B093BA01F801EE0F0B
:10083000FF1FE956FE4F88EB9BE0918380838FC0BA
:100840008090930190909401A0909501B0909601B2
:1008500025B1EE24E394F12CA70102C0440F551FEB
:100860008A95E2F7CA01822B85B9F801EE0FFF1FC6
:1008700081E090E08C0F9D1FE80FF91FD0808D2D37
:1008800091810E94100185B102C0EE0CFF1CDA9428
:10089000E2F7E094E822E5B880918A018823F9F034
:1008A0008091B7019091B801A091B901B091BA01BE
:1008B0000196A11DB11D8093B7019093B801A0933B
:1008C000B901B093BA0110928A01F801EE0FFF1F2F
:1008D000E956FE4F88EB9BE09183808340C0809176
:1008E0008F0190919001A0919101B0919201892B7B
:1008F0008A2B8B2BC1F080918F0190919001A09158
:100900009101B0919201881999094EE1489F900197
:10091000499F300D1124F801EE0FFF1FE956FE4FDD
:10092000318320831CC08091B7019091B801A091C0
:10093000B901B091BA010196A11DB11D8093B70113
:100940009093B801A093B901B093BA01F801EE0FEA
:10095000FF1FE956FE4F88EB9BE0918380830F5F7A
:100960001F4F0A3011050CF483CE64960FB6F8942D
:10097000DEBF0FBECDBFDF91CF911F910F91FF90D2
:10098000EF90DF90BF90AF909F908F9008958F92DF
:100990009F92AF92BF92DF92EF92FF920F931F93BD
:1009A000CF93DF93CDB7DEB764970FB6F894DEBF71
:1009B0000FBECDBF84E1ECE2F1E0DE0111960190C3
:1009C0000D928A95E1F700E010E079C1F801EE0F91
:1009D000FF1F41E050E04C0F5D1FE40FF51F8081C9
:1009E00091818130910509F046C025B1AA24A394D4
:1009F000B12CA50102C0440F551F8A95E2F7CA0128
:100A0000822B85B97801EE0CFF1CE1E0F0E0EC0FE1
:100A1000FD1FEE0DFF1DD0808D2D91810E941001D4
:100A200085B102C0AA0CBB1CDA94E2F7A094A822FC
:100A3000A5B8F701E956FE4F8FEF9FEF91838083B2
:100A400080918801882309F438C18091B701909181
:100A5000B801A091B901B091BA010196A11DB11DD3
:100A60008093B7019093B801A093B901B093BA01F4
:100A70001092880122C1009709F090C080909301E4
:100A800090909401A0909501B090960125B1EE242C
:100A9000E394F12CA70102C0440F551F8A95E2F799
:100AA000CA01822B85B9F801EE0FFF1F81E090E0AB
:100AB0008C0F9D1FE80FF91FD0808D2D91810E9412
:100AC000100185B102C0EE0CFF1CDA94E2F7E0944D
:100AD000E822E5B8809189018823F9F08091B70177
:100AE0009091B801A091B901B091BA010196A11DF0
:100AF000B11D8093B7019093B801A093B901B09351
:100B0000BA0110928901F801EE0FFF1FE956FE4F5E
:100B100088EB9BE091838083D0C080918B01909182
:100B20008C01A0918D01B0918E01892B8A2B8B2B8A
:100B3000C1F080918B0190918C01A0918D01B091B9
:100B40008E01881999094EE1489F9001499F300D07
:100B50001124F801EE0FFF1FE956FE4F3183208369
:100B6000ACC08091B7019091B801A091B901B0914A
:100B7000BA010196A11DB11D8093B7019093B801F0
:100B8000A093B901B093BA01F801EE0FFF1FE95627
:100B9000FE4F88EB9BE0918380838FC08090930110
:100BA00090909401A0909501B090960125B1EE240B
:100BB000E394F12CA70102C0440F551F8A95E2F778
:100BC000CA01822B85B9F801EE0FFF1F81E090E08A
:100BD0008C0F9D1FE80FF91FD0808D2D91810E94F1
:100BE000100185B102C0EE0CFF1CDA94E2F7E0942C
:100BF000E822E5B880918A018823F9F08091B70155
:100C00009091B801A091B901B091BA010196A11DCE
:100C1000B11D8093B7019093B801A093B901B0932F
:100C2000BA0110928A01F801EE0FFF1FE956FE4F3C
:100C300088EB9BE09183808340C080918F019091ED
:100C40009001A0919101B0919201892B8A2B8B2B5D
:100C5000C1F080918F0190919001A0919101B0918C
:100C60009201881999094EE1489F9001499F300DE2
:100C70001124F801EE0FFF1FE956FE4F3183208348
:100C80001CC08091B7019091B801A091B901B091B9
:100C9000BA010196A11DB11D8093B7019093B801CF
:100CA000A093B901B093BA01F801EE0FFF1FE95606
:100CB000FE4F88EB9BE0918380830F5F1F4F0A30CC
:100CC00011050CF483CE64960FB6F894DEBF0FBE08
:100CD000CDBFDF91CF911F910F91FF90EF90DF90EB
:100CE000BF90AF909F908F9008959BB19F70282FD9
:100CF000207F922B9BB99BB19E7F9BB99BB1926049
:100D00009BB935E03A95F1F700009BB19D7F9BB907
:100D1000EFE1F3E03197F1F700C000002BB1F0E113
:100D20008F9FC0011124922F9F70892B8BB98BB19B
:100D300082608BB935E03A95F1F700008BB18D7F79
:100D40008BB98FE39FE10197F1F700C00000089590
:100D50008FEF8AB98FE59AEE0197F1F700C0000096
:100D600082E00E94750688E20E9475068CE00E946F
:100D7000750686E00E94750681E00E9475068FE385
:100D80009FE10197F1F700C00000089581E00E9403
:100D900075068FE39FE10197F1F700C0000080E83E
:100DA0000E9475060895FC0160E070E034C08BB1CC
:100DB0008F70907F982B9BB98BB181608BB98BB171
:100DC00082608BB985E08A95F1F700008BB18D7F49
:100DD0008BB98FE193E00197F1F700C000004BB1B0
:100DE0009C9180E1989F90011124942F9F70292B52
:100DF0002BB99BB192609BB995E09A95F1F70000F1
:100E00009BB19D7F9BB98FE39FE10197F1F700C0F4
:100E100000006F5F7F4FDF01A60FB71F9C919111FC
:100E2000C6CF0895CF93DF93CDB7DEB7A0970FB6A7
:100E3000F894DEBF0FBECDBF87E084B90E94A8063C
:100E400080E491E00E94D30680EC0E94750681E563
:100E500091E00E94D30667C01B9B13C08091840160
:100E600090918501A0918601B09187010196A11D05
:100E7000B11D8093840190938501A0938601B09366
:100E800087011C9B27C08091840190918501A091CE
:100E90008601B0918701805B9F4FAF4FBF4F80931A
:100EA000840190938501A0938601B093870180917E
:100EB000840190918501A0918601B09187010196EE
:100EC000A11DB11D8093840190938501A09386019B
:100ED000B09387011D9B27C080918401909185016B
:100EE000A0918601B091870180569F4FAF4FBF4FB1
:100EF0008093840190938501A0938601B09387012C
:100F00008091840190918501A0918601B091870123
:100F10000196A11DB11D8093840190938501A0933A
:100F20008601B09387018091840190918501A09101
:100F30008601B0918701892B8A2B8B2B09F48CCFEA
:100F40000E94C6068FE591E00E94D3062FEF8BE743
:100F500092E9215080409040E1F700C000000E94DB
:100F6000C6060E94E5008091840190918501A091C0
:100F70008601B09187010E949F080E949A086CE246
:100F800071E00E94260864E670E00E942608613045
:100F9000710541F06230710541F0672B41F40E9408
:100FA000190305C00E946B0102C00E94C7046AE0D9
:100FB00070E087E991E00E94CA00092E000CAA0B9C
:100FC000BB0B8093B3019093B401A093B501B09390
:100FD000B6018091B3019091B401A091B501B09197
:100FE000B6014AE0BE016F5F7F4F0E94AA08809160
:100FF000B7019091B801A091B901B091BA014AE04E
:10100000BE016F5E7F4F0E94AA088BE691E00E94AE
:10101000D306CE0101960E94D30686E791E00E9496
:10102000D30680EC0E94750689E791E00E94D30602
:10103000CE0141960E94D3062FEF83E294EF215018
:1010400080409040E1F700C00000FFCF97FB072EE3
:1010500016F4009407D077FD09D00E943A0807FCE7
:1010600005D03EF4909581959F4F089570956195B8
:101070007F4F0895AA1BBB1B51E107C0AA1FBB1FCE
:10108000A617B70710F0A61BB70B881F991F5A9514
:10109000A9F780959095BC01CD0108958F929F92FC
:1010A000AF92BF92CF92DF92EF92FF92CF93DF93F6
:1010B000EC01688179818A819B81611571058105C7
:1010C000910521F464E279ED8BE597E02DE133EFB2
:1010D00041E050E00E94DF0849015A019B01AC0148
:1010E000A7EAB1E40E94FE086B017C01ACEEB4EF0C
:1010F000A50194010E940C09DC01CB018C0D9D1D02
:10110000AE1DBF1DB7FF03C00197A109B04888837A
:101110009983AA83BB839F77DF91CF91FF90EF9054
:10112000DF90CF90BF90AF909F908F9008950E94D6
:101130004E08089580E091E00E944E080895A0E0D6
:10114000B0E08093000190930101A0930201B0935D
:1011500003010895BB274A3031F4992322F4BDE2FC
:10116000909581959F4F0C94B608BB27FB0155279E
:10117000AA27880F991FAA1FA41710F0A41B8395F4
:101180005051B9F7A05DAA3308F0A95DA19300976B
:1011900079F7B111B1931192CB010C94CF08DC0116
:1011A000FC01672F71917723E1F7329704C07C919E
:1011B0006D9370836291AE17BF07C8F30895052E33
:1011C00097FB1EF400940E94F60857FD07D00E947A
:1011D000110907FC03D04EF40C94F6085095409585
:1011E000309521953F4F4F4F5F4F089590958095D3
:1011F000709561957F4F8F4F9F4F08950E943309DF
:10120000A59F900DB49F900DA49F800D911D11245A
:101210000895B7FF0C94FE080E94FE08821B930BF2
:101220000895A1E21A2EAA1BBB1BFD010DC0AA1F27
:10123000BB1FEE1FFF1FA217B307E407F50720F03F
:10124000A21BB30BE40BF50B661F771F881F991FBA
:101250001A9469F760957095809590959B01AC0103
:10126000BD01CF010895A29FB001B39FC001A39F0C
:10127000700D811D1124911DB29F700D811D1124CF
:08128000911D0895F894FFCFC1
:10128800010000000200000001000200010000004F
:10129800020000000200010001000200010000003D
:1012A800020000000200010000000200000001002E
:1012B800000002000000020001000200010000001E
:1012C800505245535320414E59205357495443488F
:1012D80000544F2053544152542054455354005302
:1012E80054415254494E472E2E2E004D696E20749B
:1012F800696D653A20006D73004D697374616B65A3
:04130800733A200014
:00000001FF
